:100000000C9434000C944E000C947E000C9446002A
:100010000C9446000C94AE000C9446000C944600E0
:100020000C9446000C9446000C9446000C94460038
:100030000C9446000C9446000C9446000C94460028
:100040000C9446000C9446000C9446000C94460018
:100050000C9446000C9446000C9446000C94460008
:100060000C9446000C94460011241FBECFEFD8E03C
:10007000DEBFCDBF21E0A0E0B1E001C01D92A23003
:10008000B207E1F70E94C9000C94EE000C94000046
:100090009C01369527958227932708951F920F92EA
:1000A0000FB60F9211242F934F935F938F939F93CB
:1000B0002FEF85EA9EE0215080409040E1F700C09C
:1000C000000085B115B88091000190910101019661
:1000D000909301018093000125B1AC01569547959D
:1000E00084279527822B85B99F918F915F914F919E
:1000F0002F910F900FBE0F901F9018951F920F9287
:100100000FB60F9211242F934F935F938F939F936A
:100110002FEF85EA9EE0215080409040E1F700C03B
:10012000000085B115B880910001909101010197FF
:10013000909301018093000125B1AC01569547953C
:1001400084279527822B85B99F918F915F914F913D
:100150002F910F900FBE0F901F9018951F920F9226
:100160000FB60F9211242F938F939F932FEF85EA51
:100170009EE0215080409040E1F700C0000085B132
:1001800015B89F918F912F910F900FBE0F901F90D8
:10019000189583B7817F846083BF83B7816083BFF5
:1001A00084B18FEF84B98AB11AB8809168008460F5
:1001B0008093680080916D00806180936D008DB3A5
:1001C00083608DBB85B78A6085BF789483B7816073
:1001D00083BF889583B78E7F83BFF8CFF894FFCF16
:00000001FF
